:1000000007C1000033C1000031C100002FC1000052
:100010002DC100002BC1000029C1000027C1000034
:1000200025C1000023C1000021C100001FC1000044
:100030001DC100001BC1000019C1000017C1000054
:1000400015C1000013C1000011C100000FC1000064
:100050000DC100000BC1000009C10000C4C40000B4
:1000600005C100008AC400005FC40000FFC000009A
:10007000FDC00000FBC00000F9C00000F7C0000098
:10008000F5C00000F3C00000F1C00000EFC00000A8
:10009000EDC00000EBC00000E9C00000E7C00000B8
:1000A000E5C00000E3C00000E1C00000DFC00000C8
:1000B000DDC00000DBC00000D9C00000D7C00000D8
:1000C000D5C00000D3C00000D1C00000CFC00000E8
:1000D000CDC00000CBC00000C9C00000C7C00000F8
:1000E000C5C00000A602A90298029C02A002E0027C
:1000F000AD02B102B702BB02BF02C502C902CD0206
:10010000E002D302D702DB0200000A0B02090C0D49
:100110000E080703040100000000000000000000BA
:1001200000000000000000000000000000000000CF
:10013000000000001211100000000000000000008C
:1001400000000000000000000000000000000000AF
:100150002200250028002B002E003100340002016F
:100160000000050108010B01000021002400270008
:100170002A002D00300033000101000004010701B6
:100180000A0105050505070508080808020202021C
:100190000A0A080804040404010101010101010123
:1001A0000303030303030303040707070C0C0C0CEE
:1001B0000C0C0C0C020202020606060606060606D7
:1001C0000B0B0B0B0B0B0B0B010210202008081064
:1001D00020401020408002010201080402010102B7
:1001E0000408102040808040201008040201800490
:1001F00002018040201008040201080402010102EB
:1002000004081020408001020408102040803D05B1
:1002100011241FBECFEFD1E2DEBFCDBF00E00CBF87
:1002200012E0A0E0B2E0EAE9FCE000E00BBF02C0AF
:1002300007900D92A831B107D9F722E0A8E1B2E00A
:1002400001C01D92A63DB207E1F711E0C8E0D1E080
:1002500000E005C021970109802FFE0110D5C730AD
:10026000D10780E00807B1F751D415C5C9CE90E099
:10027000FC01E853FE4F2491FC01EE57FE4F8491A0
:10028000882399F090E0880F991FFC01E859FE4FF0
:10029000A591B491FC01E25BFE4F859194918FB7DB
:1002A000F894EC91E22BEC938FBF0895CF92DF92FC
:1002B000EF92FF920F931F93CF93DF936C017A011C
:1002C0008B01C0E0D0E0CE15DF0589F0D8016D913B
:1002D0008D01D601ED91FC910190F081E02DC601D8
:1002E0001995892B11F47E0102C02196ECCFC7012C
:1002F000DF91CF911F910F91FF90EF90DF90CF9002
:100300000895FC01918D828D981761F0828DDF0137
:10031000A80FB11D5D968C91928D9F5F9F73928FF8
:1003200090E008958FEF9FEF0895FC01918D828DED
:10033000981731F0828DE80FF11D858D90E00895BA
:100340008FEF9FEF0895FC01918D228D892F90E012
:10035000805C9F4F821B91098F739927089581E2DA
:1003600092E0F1DF21E0892B09F420E0822F08954B
:10037000FC01848DDF01A80FB11DA35ABF4F2C9142
:10038000848D90E001968F739927848FA689B78911
:100390002C93A089B1898C9180648C93938D848DEA
:1003A000981306C00288F389E02D80818F7D8083B9
:1003B0000895EF92FF920F931F93CF93DF93EC0179
:1003C00081E0888F9B8D8C8D981305C0E889F98911
:1003D000808185FD23C0F62E0B8D10E00F5F1F4F2F
:1003E0000F731127E02E8C8DE8120BC00FB607FC9F
:1003F000FACFE889F989808185FFF5CFCE01B8DF92
:10040000F2CF8B8DFE01E80FF11DE35AFF4FF08212
:100410000B8FEA89FB898081806207C0EE89FF89A2
:100420006083E889F98980818064808381E090E03D
:10043000DF91CF911F910F91FF90EF900895CF938F
:10044000DF93EC01888D8823C1F0EA89FB898081E4
:1004500085FD05C0A889B9898C9186FD0EC00FB6AF
:1004600007FCF5CF808185FFF2CFA889B9898C91EF
:1004700085FFEDCFCE017CDFE8CFDF91CF910895EE
:1004800080E090E0892B19F06ADF811125C080E0BF
:1004900090E0892B41F080E090E0892B21F00E94D0
:1004A000000081111CC080E090E0892B41F080E0C9
:1004B00090E0892B21F00E940000811113C080E0A0
:1004C00090E0892BA1F080E090E0892B81F00E94E0
:1004D000000081110AC008950E940000D8CF0E9438
:1004E0000000E1CF0E940000EACF0C9400000895C4
:1004F000362F90E0FC01E85FFE4F4491FC01E85389
:10050000FE4F2491FC01EE57FE4F9491992309F47C
:100510006AC0442309F454C050E0FA013197E23133
:10052000F10508F04DC08827EE58FF4F8F4FA7C345
:10053000809180008F7707C0809180008F7D03C0FD
:1005400080918000877F809380003AC084B58F7748
:1005500002C084B58F7D84BD33C08091B0008F7799
:1005600003C08091B0008F7D8093B00029C080913E
:1005700090008F7707C0809190008F7D03C080919D
:100580009000877F809390001BC08091A0008F77A0
:1005900007C08091A0008F7D03C08091A000877F5D
:1005A0008093A0000DC0809120018F7707C08091BB
:1005B00020018F7D03C080912001877F80932001DF
:1005C000E92FF0E0EE0FFF1FE25BFE4FA591B49123
:1005D0008FB7F894EC91311103C020952E2301C000
:1005E0002E2B2C938FBF08953FB7F89480911D0256
:1005F00090911E02A0911F02B091200226B5A89BE7
:1006000005C02F3F19F00196A11DB11D3FBFBA2FA4
:10061000A92F982F8827820F911DA11DB11DBC0104
:10062000CD0142E0660F771F881F991F4A95D1F7C9
:1006300008958F929F92AF92BF92CF92DF92EF92E6
:10064000FF926B017C01D0DF4B015C01C114D1042E
:10065000E104F104E9F0C8DFDC01CB018819990954
:10066000AA09BB09883E9340A105B10578F321E0B2
:10067000C21AD108E108F10888EE880E83E0981EBE
:10068000A11CB11CC114D104E104F10421F7DECF97
:10069000FF90EF90DF90CF90BF90AF909F908F90A2
:1006A0000895CF93DF93EC0160E08E8121DF61E05C
:1006B0008E811EDF60E08E811BDF8BE891E0019769
:1006C000F1F7DF91CF910895CF92DF92EF92FF92F1
:1006D0000F931F93CF93DF937C016C0187E0C80ECB
:1006E000D11CC0E0D0E0062F10E0B8010C2E02C0F3
:1006F000759567950A94E2F76170F60181916F0133
:10070000F7DE2196C430D10581F7C701DF91CF9183
:100710001F910F91FF90EF90DF90CF90C2CFCF92BB
:10072000DF92EF92FF920F931F93CF93DF93EC0131
:10073000F62E642F8C81DCDE8D818F3F11F060E01E
:10074000D7DE8F850F2D10E084FF23C06E0187E078
:10075000C80ED11CE12CF12CB8010E2C02C07595ED
:1007600067950A94E2F76170F60181916F01C0DE2E
:10077000FFEFEF1AFF0A88E0E816F10469F7CE01EF
:10078000DF91CF911F910F91FF90EF90DF90CF906D
:1007900088CFB80184E0759567958A95E1F7CE0119
:1007A00093DF6F2DCE01DF91CF911F910F91FF90BD
:1007B000EF90DF90CF9088CF41E0B1DF81E090E013
:1007C000089540E0ACCF682FE1E08091D102811123
:1007D000E0E0E195F0E0E254FD4F9489690F606834
:1007E0008EEB92E0EECF61E0ECDF8BE39FE10197CF
:1007F000F1F70895EF92FF920F931F93CF93DF933A
:10080000EC01623018F08F8588608F876B8B1C8AB3
:1008100080E48D8B80E18E8B80E58F8B8C8127DD52
:100820008D818F3F09F023DD8E8121DD7E0187E000
:10083000E80EF11C00E010E08F8584FD03C084E029
:1008400090E002C088E090E0081719073CF4F70137
:1008500081917F010CDD0F5F1F4FEECF8BE39DE099
:100860000197F1F760E08C8143DE60E08E8140DE2D
:100870008D818F3F11F060E03BDE6F8564FD19C014
:1008800063E0CE0121DF0BE416E4C8010197F1F724
:1008900063E0CE0119DFC8010197F1F763E0CE01F3
:1008A00013DF83E592E00197F1F762E0CE010CDF00
:1008B00013C06062CE0185DF8BE496E40197F1F707
:1008C0006F856062CE017DDF83E592E00197F1F7ED
:1008D0006F856062CE0175DF6F856062CE0171DF6A
:1008E00084E0888B6CE0CE016CDFCE017CDF82E09F
:1008F000898B66E0CE01DF91CF911F910F91FF9020
:10090000EF905FCF009761F0FC0101900020E9F7C4
:100910003197AF01481B590BBC018EEB92E0C6CC5E
:1009200080E090E00895B3D11F920F920FB60F921E
:1009300011240BB60F922F933F934F935F936F93B6
:100940007F938F939F93AF93BF93EF93FF9381E236
:1009500092E00EDDFF91EF91BF91AF919F918F914A
:100960007F916F915F914F913F912F910F900BBEAF
:100970000F900FBE0F901F9018951F920F920FB6F9
:100980000F9211240BB60F922F938F939F93EF9397
:10099000FF93E0913102F09132028081E0913702C1
:1009A000F091380282FD12C0908180913A028F5FEF
:1009B0008F7320913B02821751F0E0913A02F0E0F0
:1009C000EF5DFD4F958F80933A0201C08081FF91CA
:1009D000EF919F918F912F910F900BBE0F900FBEB3
:1009E0000F901F9018951F920F920FB60F9211241F
:1009F0002F933F938F939F93AF93BF93809119024F
:100A000090911A02A0911B02B0911C023091180221
:100A100023E0230F2D3720F40196A11DB11D05C041
:100A200026E8230F0296A11DB11D20931802809382
:100A3000190290931A02A0931B02B0931C0280919A
:100A40001D0290911E02A0911F02B09120020196FA
:100A5000A11DB11D80931D0290931E02A0931F0241
:100A6000B0932002BF91AF919F918F913F912F91B1
:100A70000F900FBE0F901F901895E1E2F2E01382E5
:100A8000128288EE93E0A0E0B0E084839583A68391
:100A9000B78384E092E09183808385EC90E0958732
:100AA000848784EC90E09787868780EC90E0918B38
:100AB000808B81EC90E0938B828B82EC90E0958B25
:100AC000848B86EC90E0978B868B118E128E138E22
:100AD000148EEEEBF2E01382128284E192E09183B5
:100AE00080838BE0848315828CE0868387E0878314
:100AF00088E0808789E081878AE082871386148670
:100B000015861686178661E0CF0174CE789484B579
:100B1000826084BD84B5816084BD85B5826085BDF9
:100B200085B5816085BD80916E00816080936E0087
:100B30001092810080918100826080938100809179
:100B4000810081608093810080918000816080932A
:100B500080008091B10084608093B1008091B000EA
:100B600081608093B00080919100826080939100B9
:100B700080919100816080939100809190008160CC
:100B8000809390008091A10082608093A100809169
:100B9000A10081608093A1008091A000816080937A
:100BA000A000809121018260809321018091210128
:100BB00081608093210180912001816080932001D8
:100BC00080917A00846080937A0080917A008260BC
:100BD00080937A0080917A00816080937A0080917E
:100BE0007A00806880937A001092C100E09131020F
:100BF000F091320282E08083E0912D02F0912E028A
:100C00001082E0912F02F09130028FEC80831092DD
:100C10003902E0913502F091360286E08083E0915E
:100C20003302F0913402808180618083E09133024D
:100C3000F0913402808188608083E0913302F091EA
:100C40003402808180688083E0913302F091340225
:100C500080818F7D80838EEB92E0C5DD62E08EEB3C
:100C600092E0C8DD8EE203DB80E301DB8EE1FFDA98
:100C700064E670E080E090E0DCDC02DCF9CFEE0FAF
:100C8000FF1F881F8BBF0790F691E02D199481E01C
:0A0C900090E0F89400C0F894FFCF44
:100C9A0000000000D9015601A301810195011F023C
:080CAA0000000000DC0356010C
:00000001FF
